{
  "_format": "hh-sol-artifact-1",
  "contractName": "Disperse",
  "sourceName": "contracts/Disperse.sol",
  "abi": [
    {
      "constant": false,
      "inputs": [
        {
          "name": "recipients",
          "type": "address[]"
        },
        {
          "name": "values",
          "type": "uint256[]"
        }
      ],
      "name": "disperseNative",
      "outputs": [],
      "payable": true,
      "stateMutability": "payable",
      "type": "function"
    },
    {
      "constant": false,
      "inputs": [
        {
          "name": "token",
          "type": "address"
        },
        {
          "name": "recipients",
          "type": "address[]"
        },
        {
          "name": "values",
          "type": "uint256[]"
        }
      ],
      "name": "disperseTokenSimple",
      "outputs": [],
      "payable": false,
      "stateMutability": "nonpayable",
      "type": "function"
    },
    {
      "constant": false,
      "inputs": [
        {
          "name": "token",
          "type": "address"
        },
        {
          "name": "recipients",
          "type": "address[]"
        },
        {
          "name": "values",
          "type": "uint256[]"
        }
      ],
      "name": "disperseToken",
      "outputs": [],
      "payable": false,
      "stateMutability": "nonpayable",
      "type": "function"
    },
    {
      "constant": false,
      "inputs": [
        {
          "name": "recipients",
          "type": "address[]"
        },
        {
          "name": "values",
          "type": "uint256[]"
        }
      ],
      "name": "disperseEther",
      "outputs": [],
      "payable": true,
      "stateMutability": "payable",
      "type": "function"
    }
  ],
  "bytecode": "0x608060405234801561001057600080fd5b50610664806100206000396000f3006080604052600436106100615763ffffffff7c01000000000000000000000000000000000000000000000000000000006000350416630b860726811461006657806351ba162c146100e9578063c73a2d601461012f578063e63d38ed14610175575b600080fd5b604080516020600480358082013583810280860185019096528085526100e795369593946024949385019291829185019084908082843750506040805187358901803560208181028481018201909552818452989b9a9989019892975090820195509350839250850190849080828437509497506101949650505050505050565b005b3480156100f557600080fd5b506100e76004803573ffffffffffffffffffffffffffffffffffffffff16906024803580820192908101359160443590810191013561025f565b34801561013b57600080fd5b506100e76004803573ffffffffffffffffffffffffffffffffffffffff1690602480358082019290810135916044359081019101356103c4565b6100e760246004803582810192908201359181359182019101356105d7565b6000805b835182101561021e5783828151811015156101af57fe5b9060200190602002015173ffffffffffffffffffffffffffffffffffffffff166108fc84848151811015156101e057fe5b602090810290910101516040518115909202916000818181858888f19350505050158015610212573d6000803e3d6000fd5b50600190910190610198565b503031600081111561025957604051339082156108fc029083906000818181858888f19350505050158015610257573d6000803e3d6000fd5b505b50505050565b60005b838110156103bc5773ffffffffffffffffffffffffffffffffffffffff86166323b872dd3387878581811061029357fe5b9050602002013573ffffffffffffffffffffffffffffffffffffffff1686868681811015156102be57fe5b905060200201356040518463ffffffff167c0100000000000000000000000000000000000000000000000000000000028152600401808473ffffffffffffffffffffffffffffffffffffffff1673ffffffffffffffffffffffffffffffffffffffff1681526020018373ffffffffffffffffffffffffffffffffffffffff1673ffffffffffffffffffffffffffffffffffffffff1681526020018281526020019350505050602060405180830381600087803b15801561037d57600080fd5b505af1158015610391573d6000803e3d6000fd5b505050506040513d60208110156103a757600080fd5b505115156103b457600080fd5b600101610262565b505050505050565b6000805b848110156103f2578383828181106103dc57fe5b60200291909101359290920191506001016103c8565b604080517f23b872dd00000000000000000000000000000000000000000000000000000000815233600482015230602482015260448101849052905173ffffffffffffffffffffffffffffffffffffffff8916916323b872dd9160648083019260209291908290030181600087803b15801561046d57600080fd5b505af1158015610481573d6000803e3d6000fd5b505050506040513d602081101561049757600080fd5b505115156104a457600080fd5b5060005b848110156105ce5773ffffffffffffffffffffffffffffffffffffffff871663a9059cbb8787848181106104d857fe5b9050602002013573ffffffffffffffffffffffffffffffffffffffff16868685818110151561050357fe5b905060200201356040518363ffffffff167c0100000000000000000000000000000000000000000000000000000000028152600401808373ffffffffffffffffffffffffffffffffffffffff1673ffffffffffffffffffffffffffffffffffffffff16815260200182815260200192505050602060405180830381600087803b15801561058f57600080fd5b505af11580156105a3573d6000803e3d6000fd5b505050506040513d60208110156105b957600080fd5b505115156105c657600080fd5b6001016104a8565b50505050505050565b6102598484808060200260200160405190810160405280939291908181526020018383602002808284375050604080516020808a028281018201909352898252909550899450889350839250850190849080828437506101949450505050505600a165627a7a72305820cbff7fa61ab71c4899d46a1ef13126b438a5200eca1795a53b75663a303ad5d20029",
  "linkReferences": {},
  "deployedLinkReferences": {}
}